:020000040800F2
:100000000050002001020008070200080B0200084F
:1000100023020008270200083F0200080000000039
:10002000000000000000000000000000570200086F
:100030005B020008000000005F0200080D0A0008D3
:1000400071020008710200087102000871020008C4
:1000500071020008710200087102000871020008B4
:1000600071020008710200087102000871020008A4
:100070007102000871020008710200087102000894
:100080007102000871020008710200087102000884
:100090007102000871020008710200087102000874
:1000A0007102000871020008710200087102000864
:1000B0007102000871020008710200087102000854
:1000C0007102000871020008710200087102000844
:1000D0007102000871020008710200087102000834
:1000E00071020008710200087102000800B583B0B7
:1000F00000F09AFB304B314A1360314A1360314BA8
:10010000314A03E052F8041B43F8041B2F498B4289
:10011000F8D32A4B1A682E4B9A4200D0FEE7284BA0
:100120001A682C4B9A42F9D1234B2B4A13602B4A65
:1001300013602B4B02E0002243F8042B294A934220
:10014000F9D3254B1B6813B9244B1B6803B1FEE799
:1001500000F0D2FB694601A800F05EFB224C234B65
:10016000E41AA410002504E0204B53F825309847EA
:100170000135AC42F8DC1E4C1E4BE41AA4100025DD
:1001800004E01C4B53F8253098470135AC42F8DCAD
:100190000099019800F0ECFB0546174C174BE41A48
:1001A000A41004E0013C154B53F824309847002C70
:1001B000F8DC284600F02EFBBABADECA00000020A8
:1001C00018000020000000208C0A00081C000020FD
:1001D00078563412325476981C0000202C000020EF
:1001E0001C000020300000209C0200089C02000837
:1001F0009C0200089C0200089C0200089C02000867
:1002000008B5FFF773FF00BEFEE71EF0040F0CBF3A
:10021000EFF30880EFF309807146124A104700BEE1
:10022000FEE700BEFEE71EF0040F0CBFEFF30880F0
:10023000EFF3098071460C4A104700BEFEE71EF03E
:10024000040F0CBFEFF30880EFF309807146074AF3
:10025000104700BEFEE700BEFEE700BEFEE700BEA0
:10026000FEE770471F0200083B0200085302000827
:0402700000BEFEE7E7
:100274008C0A0008000000201C0000208C0A0008E2
:1002840000000000000000001C00002030000020DE
:08029400000000000000000062
:10029C0010B504460E4B1A784FF47A73B3FBF2F395
:1002AC000C4A1068B0FBF3F000F0ACF868B90F2CF6
:1002BC0001D901200AE0002221464FF0FF3000F066
:1002CC007DF8054B1C60002000E0012010BD00BF34
:1002DC0004000020140000200800002008B5074A84
:1002EC00136843F010031360032000F049F80F204B
:1002FC00FFF7CEFF00F053FB002008BD00200240AA
:10030C00034A1168034B1B780B441360704700BF02
:10031C002000002004000020002808DB0901C9B2DD
:10032C0000F1604000F5614080F80013704700F068
:10033C000F000901C9B2014B1954704714ED00E0CC
:10034C0000B500F00700C0F1070CBCF1040F28BF8A
:10035C004FF0040C031D062B0FD9C31E4FF0FF3EAC
:10036C000EFA0CF021EA000199400EFA03FE22EA83
:10037C000E0241EA02005DF804FB0023EEE70000E8
:10038C0010B50446C31E042B0FD80A4AD36823F4B5
:10039C00E0631B041B0C240204F4E064234343F0CD
:1003AC00BF6343F40033D36010BD9221024800F0C8
:1003BC00A5FAEAE700ED00E0180A000870B5064659
:1003CC000C4615460F2A0ED80F2C11D80B4BD8689B
:1003DC002A462146C0F30220FFF7B2FF0146304601
:1003EC00FFF79AFF70BDAA21054800F087FAEBE7EA
:1003FC00AB21034800F082FAE8E700BF00ED00E013
:10040C00180A00080138B0F1807F0BD24FF0E023BE
:10041C005861054AF02182F82310002098610722C8
:10042C001A6170470120704700ED00E008B5042800
:10043C0007D068B94FF0E022136923F0040313616D
:10044C0008BD4FF0E022136943F004031361F7E792
:10045C0040F2C911014800F051FAEBE7180A000804
:10046C002DE9F04383B007460E467B4B984213D0E0
:10047C0003F5806398420FD003F5806398420BD04C
:10048C0003F58063984207D003F58063984203D04C
:10049C00BD21724800F032FA33689AB212B1B3F54A
:1004AC00803F03D3BE216D4800F028FA7368012BFE
:1004BC0011D96B4A93420ED014D8A2F580129342F4
:1004CC0009D003D9674A934205D016E0032B06D90D
:1004DC00113B012B11D84FF000094D46F8E0022BCF
:1004EC000BD3F8E7604A9342F5D002F58032934281
:1004FC00F1D0A2F580129342EDD0BF21574800F005
:10050C00FDF9E8E7594A934210D007D9564A93426D
:10051C000CD002F58032934208D018E0A2F580127C
:10052C00934203D002F5702293420CD1B368022B94
:10053C007CD8B368002B00F08580012B7BD07C61CC
:10054C004FF0080903E0A2F580129342EED0B8F107
:10055C00FF0F7AD83846AA0003680F21914023EA8E
:10056C00010309FA02F213430360736813F0805F0E
:10057C0000F0AD803E4B9A6942F001029A619B6992
:10058C0003F001030193019BAA08911C394B53F80A
:10059C00210005F0030189000F238B4020EA0300A2
:1005AC002D4B9F4268D003F580639F4200F0E280A0
:1005BC0003F580639F4200F0DF8003F580639F4268
:1005CC0048D0042359E0F368013B022B02D8D6F83B
:1005DC000C90BCE7D521214800F090F9F7E7F368BF
:1005EC00013B022B03D8F36803F10409AFE7DC21CC
:1005FC001A4800F083F9F6E7F368013B022B03D8A5
:10060C00F36803F10809A2E7E321144800F076F936
:10061C00F6E7F368013B022B03D8F36803F10C09EE
:10062C0095E7EA210D4800F069F9F6E7F7210B4848
:10063C0000F064F97DE73C614FF0080987E74FF063
:10064C00000984E74FF0040981E7381DA5F1080281
:10065C00920081E7032310E0000801404C0A0008D7
:10066C0000002110000012100000311000002210B8
:10067C00001002400000014000238B400343023273
:10068C004C4941F82230736813F4803F76D04A4AC3
:10069C00136843EA08031360736813F4003F73D0C4
:1006AC00454A536843EA08035360736813F4801F88
:1006BC0070D0414A936843EA08039360736813F45B
:1006CC00001F6DD03C4AD36843EA0803D360013560
:1006DC00336833FA05F269D00124AC4003EA04080C
:1006EC0034EA0303F3D1354B9F4213D003F58063F7
:1006FC009F420FD003F580639F420BD003F58063BC
:10070C009F4207D003F580639F4203D0CD212C4834
:10071C0000F0F4F87368122B3FF6F4AE122B3FF690
:10072C0016AF01A252F823F039050008D3050008D2
:10073C00050600084B0600085B0500085B05000871
:10074C005B0500085B0500085B0500085B050008FD
:10075C005B0500085B0500085B0500085B050008ED
:10076C005B0500085B0500085B050008EB0500084D
:10077C001F060008012380E702237EE70E4A136858
:10078C0023EA0803136087E70B4A536823EA08033C
:10079C0053608AE7084A936823EA080393608DE75D
:1007AC00054AD36823EA0803D36090E703B0BDE899
:1007BC00F08300BF0000014000040140000801402C
:1007CC004C0A000870B5054614460E4621B1012CA2
:1007DC0008D86CB12E6170BD4FF4EA71064800F078
:1007EC008DF8F4E740F2D511034800F087F8F0E7F4
:1007FC0036042E61EFE700BF4C0A0008014B186865
:10080C00704700BF14000020FEE7000001230360C6
:10081C00014B0B60704700BF0C00002008B500F0C6
:10082C0009F8024A024B9A6008BD00BF000000089C
:10083C0000ED00E0704700001F4B5B6803F00C03F9
:10084C00042B14D0082B16D01BB11C4B1C4A1A605D
:10085C0002E01A4B1A4A1A60174B5B68C3F3031376
:10086C00184AD15C154A1368CB4013607047134B80
:10087C00134A1A60F0E7104A53685268C3F3834373
:10088C00023312F4803F05D10F4A02FB03F30B4AEB
:10089C001360E1E7084A526812F4003F05D00A4A97
:1008AC0002FB03F3054A1360D6E7054A02FB03F388
:1008BC00024A1360D0E700BF001002401400002071
:1008CC0000127A007C0A000800093D0008B5FFF709
:1008DC0095FF054BA3FB00308009FFF793FD042027
:1008EC00FFF7A4FD08BD00BFD34D621008B5FFF79C
:1008FC00F5FCFFF7EBFFFFF79FFF08BDFEE70000DD
:10090C0008B500224FF400510148FFF75BFF08BD0A
:10091C000010014008B501224FF400510148FFF7C7
:10092C0051FF08BD0010014010B584B004460B4ABD
:10093C00936943F0100393614FF400530093012328
:10094C00019303220392029369460548FFF788FD41
:10095C002046FFF7DFFF04B010BD00BF00100240BF
:10096C000010014010B582B001A800F019F86846DB
:10097C00FFF7DAFF00240AE04FF47A7000F02CF84D
:10098C006846FFF7C7FFFA2000F026F801346846E6
:10099C00FFF7B6FF002CEFD040F2EE20EEE77047E9
:1009AC000A4B1B680A4AA2FB03239B09013BB3F1C8
:1009BC00807F0AD24FF0E0225361064BF02183F87E
:1009CC002310002393610723136170471400002048
:1009DC00D34D621000ED00E0034B1860024B1B6816
:1009EC00002BFBD1704700BF28000020034B1B6875
:1009FC001BB1024A1368013B1360704728000020AA
:100A0C0008B5FFF77DFCFFF7F1FF08BD2E2E2F7305
:100A1C00797374656D2F7372632F73746D333266D3
:100A2C00312D68616C2F73746D3332663178785F59
:100A3C0068616C5F636F727465782E6300000000F0
:100A4C002E2E2F73797374656D2F7372632F7374DD
:100A5C006D333266312D68616C2F73746D33326671
:100A6C003178785F68616C5F6770696F2E63000026
:100A7C000000000000000000010203040607080942
:100A8C007856341201FFFFFF1000000024000020F4
:0C0A9C00000000000024F40032547698A2
:04000005080000ED02
:00000001FF
